:100000000C9478000C9499000C9499000C9499002D
:100010000C9499000C9499000C9499000C949900FC
:100020000C9499000C9499000C9499000C949900EC
:100030000C9499000C9499000C9499000C94AF00C6
:100040000C9499000C9499000C9499000C949900CC
:100050000C9499000C9499000C9499000C949900BC
:100060000C9499000C94FF000C9438010C949900A6
:100070000C9499000C9499000C9499000C9499009C
:100080000C9499000C9499000C9499000C9499008C
:100090000C9499000C9499000C9499000C9499007C
:1000A0000C9499000C9499000C9499000C9499006C
:1000B0000C9499000C9499000C9499000C9499005C
:1000C0000C9499000C9499000C9499000C9499004C
:1000D0000C9499000C9499000C9499000C9499003C
:1000E0000C9499006364696E6F70737578585B0047
:1000F00011241FBECFEFD1E2DEBFCDBF00E00CBFA9
:1001000012E0A0E0B2E0E6E6F6E100E00BBF02C0DC
:1001100007900D92AE31B107D9F723E0AEE1B2E01E
:1001200001C01D92AC39B207E1F70E94B3030C94F1
:10013000310B0C940000F894E1EBF0E0108282E8BF
:100140008093B200B898A0E7B0E08C9181608C9366
:100150001092B000808185608083789408951F920A
:100160000F920FB60F9211242F938F939F9380912C
:1001700022029091230201969093230280932202FF
:100180008091220290912302883E934068F08091F2
:1001900020029091210201969093210280932002E7
:1001A000109223021092220282E88093B200B89843
:1001B0009F918F912F910F900FBE0F901F901895C8
:1001C000E1E0F1E0808180628083E2E0F1E0808123
:1001D000806280830895E2E0F1E080818F7D8083FA
:1001E0000895E2E0F1E080818062808308950E94BA
:1001F0008301911102C0811108958FEF08951F921C
:100200000F920FB60F9211240BB60F922F933F93BC
:100210004F935F938F939F93EF93FF932091C00031
:100220003091C60028718091260290E001968F7768
:1002300099274091250250E08417950739F0809363
:100240002602FC01E75DFD4F308301C022E02093D0
:100250002402FF91EF919F918F915F914F913F9178
:100260002F910F900BBE0F900FBE0F901F901895FF
:100270001F920F920FB60F9211240BB60F928F930D
:100280009F93EF93FF9390912802809127029817F4
:1002900079F08091270290E001968F7799278093DB
:1002A0002702FC01E755FD4F80818093C60005C001
:1002B0008091C1008F7D8093C100FF91EF919F914C
:1002C0008F910F900BBE0F900FBE0F901F9018953F
:1002D000F89410922802109227021092260210928F
:1002E0002502789497FF04C022E02093C0009F77F6
:1002F0009093C5008093C40088E98093C10086E094
:100300008093C2000895F89490912602809125026E
:10031000981304C0789480E091E0089578948091D7
:10032000250290E001968F77992780932502FC01A2
:10033000E75DFD4F20818091240290E0982F88276F
:10034000820F911D0895F8949091260280912502C4
:10035000981304C0789480E091E008957894E09137
:100360002502F0E03196EF77FF27E75DFD4F208112
:100370008091240290E0982F8827820F911D089584
:100380002091280230E02F5F3F4F2F773327409195
:10039000270250E024173507D1F3F901E755FD4F47
:1003A0008083209328028091C10080628093C100E5
:1003B0000895CF93DF93EC018991882319F00E946F
:1003C000C001FACFDF91CF910895CF93DF93FC0165
:1003D0008491EF012196882321F00E94C001FE0143
:1003E000F7CFDF91CF910895F89480912602209164
:1003F0002502789490E080589F4F821B91098F7757
:1004000099270895F8948091250280932602789484
:10041000089587B1876087B987B1806F87B988B140
:10042000887F88B988B18F7088B9089586E69EE084
:100430000197F1F700004098419880E388B9429A0B
:10044000EFEFF7E43197F1F700C000004298E6E6DD
:10045000FEE03197F1F700004098419888B9429A40
:10046000EFEFF7E43197F1F700C000004298E6E6BD
:10047000FEE03197F1F700004098419888B9429A20
:100480008FEF97E40197F1F700C000004298E6E68D
:10049000FEE03197F1F700004098419880E288B97A
:1004A000429A8FEF97E40197F1F700C0000042985D
:1004B000089598B19F7098B998B1282F207F922BFA
:1004C00098B940984198429AEFEFF7E43197F1F7E5
:1004D00000C00000429898B19F7098B998B1829579
:1004E000807F892B88B940984198429A8FEF97E492
:1004F0000197F1F700C00000429808950E9416028B
:1005000086E69EE00197F1F7000088E20E9459021A
:1005100081E00E94590286E00E9459028EE00E940A
:10052000590280E80C94590280E80C945902982FE3
:10053000862F923059F01CF4913031F008959330A9
:1005400039F0943039F00895815805C0815403C0C2
:100550008D5601C08D520C94590281E00C945902C1
:10056000CF93C42F0E94970288B18F7088B988B149
:100570009C2F907F892B88B9409A4198429A8FEF9F
:1005800097E40197F1F700C000004298C295C07F40
:1005900088B18F7088B988B1C82BC8B9409A419882
:1005A000429A8FEF97E40197F1F700C0000042985C
:1005B000CF9108950F931F93CF93DF93D82FC62F1A
:1005C0008A01F80141918F01442331F06C2F8D2F66
:1005D0000E94B002CF5FF5CFDF91CF911F910F91B5
:1005E0000895EF92FF920F931F93CF93DF93D82F2D
:1005F000C62F8A0179010E94970217FF0AC0119540
:10060000019511094BE152E06C2F8D2F0E94DA0207
:10061000CF5FDD2311F0C11103C00E94940204C01A
:100620006C2F8D2F0E94970285E0E816F10409F0E7
:100630007FC0C80160E177E20E948004AB01405DA9
:100640005F4F50939103409390036C2F8D2F0E9426
:10065000B002CF5FC80168EE73E00E948004CB0156
:1006600070939303609392036AE070E00E946C04BD
:10067000AC01405D5F4F50939B0340939A036C2FF6
:100680008D2F0E94B002CF5FC80164E670E00E9427
:100690008004CB0170939303609392036AE070E04F
:1006A0000E946C04AC01405D5F4F509397034093F0
:1006B00096036C2F8D2F0E94B002CF5F2AE030E0AE
:1006C000C801B9010E948004CB0170939303609329
:1006D0009203B9010E946C04AC01405D5F4F5093DE
:1006E0009503409394036C2F8D2F0E94B002CF5F2F
:1006F000C8016AE070E00E948004AC01405D5F4F79
:1007000050939903409398036C2F8D2F0E94B00251
:10071000CF5F86E0E816F104FCF045E46C2F8D2FE6
:10072000DF91CF911F910F91FF90EF900C94B00249
:1007300084E0E816F10409F48DCF83E0E816F104B3
:1007400009F4A2CF82E0E816F10409F4B7CF81E002
:10075000E816F104F1F6CCCFDF91CF911F910F9104
:10076000FF90EF900895CF93DF93CDB7DEB7C656D5
:10077000D1090FB6F894DEBF0FBECDBF0E940902AB
:100780000E947E020E94E0000E949B0087E090E0B1
:100790000E9468010E94020240E052E060E080E0B6
:1007A0000E94DA028E010B591F4F8EE1A82E9DE0A8
:1007B000992E24E6822E3CE0C32E32E0D32ECE01C9
:1007C00001967C010E94F700B82E80938F03082EBB
:1007D000000C990B0E949404892B91F080911E02C9
:1007E00090911F02843691055CF49C012F5F3F4F6E
:1007F00030931F0220931E02FC01E55DFC4FB08286
:100800009DE2B912DFCF10921F0210921E0280915A
:100810002B03833709F054C00E94AD0245E052E03B
:1008200060E080E00E94DA026AE072E08BE293E02E
:100830000E94AC041F930F939F938F930E94060511
:100840006AE072E080E090E00E94AC041F930F9396
:100850009F938F930E9406056AE072E080E090E02B
:100860000E94AC041F930F939F938F930E940605E1
:100870006AE072E080E090E00E94AC041F930F9366
:100880009F938F930E9406051F92AF921F929F9293
:100890001F928F92DF92CF92FF92EF920E94D70425
:1008A000C7010E94D9010E94AD02A70160E080E06B
:1008B0000E94DA020FB6F894DEBF0FBECDBF82CF22
:1008C000863609F07FCF0E94AD0245E152E060E03C
:1008D00080E00E94DA0276CFAA1BBB1B51E107C061
:1008E000AA1FBB1FA617B70710F0A61BB70B881FC0
:1008F000991F5A95A9F780959095BC01CD0108954F
:1009000097FB072E16F4009407D077FD09D00E94BC
:100910006C0407FC05D03EF4909581959F4F089597
:10092000709561957F4F089591110C949E048053AA
:100930008A5018F0865C0C94A4040895992788279F
:10094000089585FD0C949E04806291110C949E0480
:1009500081568A51D8F7089549E253E00C94B004C7
:10096000FA01A191B081009719F41097E1F0CD013F
:10097000DC01CD010D90002011F4C00113C0FB017A
:100980002191222319F02015D9F7F3CFFB012191F2
:10099000201519F41E92119606C02223C1F70D905E
:1009A0000020A1F7D001FA01A193B08308950F931D
:1009B0001F93CF93DF93CDB7DEB72E970FB6F89482
:1009C000DEBF0FBECDBF0E891F8986E08C831A83E0
:1009D00009838FEF9FE79E838D83AE01465E5F4F55
:1009E000688D798DCE0101960E942805EF81F885EA
:1009F000E00FF11F10822E960FB6F894DEBF0FBEE7
:100A0000CDBFDF91CF911F910F910895CF93DF93C9
:100A1000CDB7DEB72E970FB6F894DEBF0FBECDBFB1
:100A200085E08C838C899D899A838983AE01485E99
:100A30005F4F6E897F89CE0101960E94F1082E9644
:100A40000FB6F894DEBF0FBECDBFDF91CF910895F2
:100A50002F923F924F925F926F927F928F929F92CE
:100A6000AF92BF92CF92DF92EF92FF920F931F93BC
:100A7000CF93DF93CDB7DEB72B970FB6F894DEBFD9
:100A80000FBECDBF6C017B018A01FC01178216826B
:100A9000838181FFCCC1CE0101963C01F601938197
:100AA000F70193FD859193FF81917F01882309F4DC
:100AB000BAC1853239F493FD859193FF81917F010D
:100AC000853229F4B60190E00E947E0AE7CF912C8E
:100AD000212C312CFFE1F315D8F08B3279F038F46A
:100AE000803279F08332A1F4232D20611DC08D3234
:100AF00061F0803369F4232D216016C0832D82605C
:100B0000382EE32DE4603E2E2AC0F32DF8601DC080
:100B100037FC2DC020ED280F2A3040F08E32B9F47A
:100B200036FC81C1232D2064322E19C036FE06C04A
:100B30008AE0989E200D1124922E11C0EAE02E9E8C
:100B4000200D1124222EF32DF0623F2E08C08C368A
:100B500021F4832D8068382E02C0883641F4F701D5
:100B600093FD859193FF81917F018111B3CF982FE0
:100B70009F7D9554933028F40C5F1F4F9FE399831A
:100B80000DC0833631F0833771F0833509F059C0D9
:100B900021C0F801808189830E5F1F4F88248394D0
:100BA000912C530113C02801F2E04F0E511CF801A3
:100BB000A080B18036FE03C0692D70E002C06FEFE7
:100BC0007FEFC5010E94350A4C018201F32DFF77AA
:100BD0003F2E16C0280122E0420E511CF801A080D1
:100BE000B18036FE03C0692D70E002C06FEF7FEF69
:100BF000C5010E942A0A4C01F32DF0683F2E8201A4
:100C000033FC1BC0822D90E088169906B0F4B60123
:100C100080E290E00E947E0A2A94F4CFF50137FC2E
:100C2000859137FE81915F01B60190E00E947E0AB6
:100C300021102A9421E0821A91088114910471F7FD
:100C4000E8C0843611F0893641F5F80137FE07C057
:100C500060817181828193810C5F1F4F08C0608128
:100C60007181072E000C880B990B0E5F1F4FF32D1F
:100C7000FF763F2E97FF09C09095809570956195FE
:100C80007F4F8F4F9F4FF0683F2E2AE030E0A30147
:100C90000E94D30A882E861845C0853731F4232D4B
:100CA0002F7EB22E2AE030E025C0932D997FB92EF9
:100CB0008F36C1F018F4883579F0B5C0803719F057
:100CC000883721F0B0C0E92FE061BE2EB4FE0DC020
:100CD000FB2DF460BF2E09C034FE0AC0292F266008
:100CE000B22E06C028E030E005C020E130E002C0AE
:100CF00020E132E0F801B7FE07C060817181828196
:100D000093810C5F1F4F06C06081718180E090E08D
:100D10000E5F1F4FA3010E94D30A882E8618FB2D59
:100D2000FF773F2E36FE0DC0232D2E7FA22E891475
:100D300058F434FE0BC032FC09C0832D8E7EA82EE1
:100D400005C0B82CA32C03C0B82C01C0B92CA4FE3C
:100D50000FC0FE01E80DF11D8081803321F49A2D32
:100D6000997EA92E09C0A2FE06C0B394B39404C014
:100D70008A2D867809F0B394A3FC11C0A0FE06C0AA
:100D8000B21488F4280C922C9B180EC0B21460F494
:100D9000B60180E290E00E947E0AB394F7CFB214CD
:100DA00018F42B1802C0982C212CA4FE10C0B601F8
:100DB00080E390E00E947E0AA2FE17C0A1FC03C05F
:100DC00088E790E002C088E590E0B6010CC08A2D6B
:100DD000867859F0A1FE02C08BE201C080E2A7FC38
:100DE0008DE2B60190E00E947E0A891438F4B601C3
:100DF00080E390E00E947E0A9A94F7CF8A94F301F0
:100E0000E80DF11D8081B60190E00E947E0A8110FC
:100E1000F5CF222009F442CEB60180E290E00E9494
:100E20007E0A2A94F6CFF6018681978102C08FEF61
:100E30009FEF2B960FB6F894DEBF0FBECDBFDF91AC
:100E4000CF911F910F91FF90EF90DF90CF90BF90C7
:100E5000AF909F908F907F906F905F904F903F905A
:100E60002F90089520FD09C0FC0123FD05C022FF3D
:100E700002C07383628351834083089544FD17C089
:100E800046FD17C0AB01BC01DA01FB01AA0FBB1F75
:100E9000EE1FFF1F1094D1F74A0F5B1F6E1F7F1FBD
:100EA000CB01BA01660F771F881F991F09C033E075
:100EB00001C034E0660F771F881F991F3150D1F7AA
:100EC000620F711D811D911D08950F931F93CF9384
:100ED000DF938C01C8010E94400AEC0197FD08C015
:100EE0000E94160A892BB1F7B801CE010E94BA0AF6
:100EF000CE01DF91CF911F910F9108958F929F9214
:100F0000AF92BF92EF92FF920F931F93CF93DF9315
:100F10008C01D62F7A01B22E0E94400A9C01332701
:100F20002B32310531F02D32310561F48B2D806883
:100F3000B82ED15011F480E068C0C8010E94400A68
:100F400097FDF9CFCB2DCD7F2B2D207309F5803365
:100F5000F9F4AA24AA94AD0E09F443C0C8010E9472
:100F6000400A97FD3EC09C012F7D3327283531056F
:100F700049F4C264D250A9F1C8010E94400A97FF07
:100F800007C02FC0B6FE02C0C26001C0C261DA2D28
:100F9000812C912C540120ED280F283080F0C4FFC3
:100FA00004C0B8010E94BA0A19C02A3040F0C6FF36
:100FB000F8CF2F7D3FEE320F363098F727504C2F69
:100FC000C501B4010E943E074B015C01C260D150D3
:100FD00059F0C8010E94400A97FFDDCFC1FD04C04F
:100FE000AACF812C912C5401C7FF08C0B094A094C3
:100FF00090948094811C911CA11CB11C2C2FB501D4
:10100000A401C7010E94320781E0DF91CF911F91B7
:101010000F91FF90EF90BF90AF909F908F900895A9
:101020005F926F927F928F929F92AF92BF92CF9278
:10103000DF92EF92FF920F931F93CF93DF93CDB781
:10104000DEB7A0970FB6F894DEBF0FBECDBF5C0130
:10105000962E7A01F9018E010F5F1F4F680180E221
:10106000D8011D928A95E9F7D50113968C9080E0FE
:1010700090E0612C712C30E061E070E083FC259100
:1010800083FE21918F01522E211103C080E090E058
:1010900092C02E3511F4009751F1432F50E04817BC
:1010A00059073CF42D3559F12D3219F4772009F107
:1010B00003C0772009F46AC0452D469546954695AC
:1010C000D601A40FB11D452D47708B0102C0000F42
:1010D000111F4A95E2F7A8015C91452B4C936514CA
:1010E00059F0561410F45394E7CF5A94E5CF31E0F9
:1010F00004C07724739401C0712C0196BFCF772070
:1011000019F08E8180628E83311103C0882483940C
:1011100017C0F6019E012F5D3F4F8081809581931E
:101120002E173F07D1F7F2CFE114F10429F0D701D0
:101130008C93F70131967F019A94812C9920F9F0D4
:10114000C5010E94400A97FD18C0FC01FF2723E05B
:10115000F595E7952A95E1F7EC0DFD1D208130E02E
:10116000AC014770552702C0359527954A95E2F79F
:1011700020FDDACFB5010E94BA0A811087CFE114B1
:10118000F10411F0D7011C92C80115C0422F4695F9
:1011900046954695D601A40FB11D422F47708B018D
:1011A00002C0000F111F4A95E2F7A8015C91452B80
:1011B0004C93622EA2CFA0960FB6F894DEBF0FBE5E
:1011C000CDBFDF91CF911F910F91FF90EF90DF90F6
:1011D000CF90BF90AF909F908F907F906F905F90D7
:1011E00008955F926F927F928F929F92AF92BF927B
:1011F000CF92DF92EF92FF920F931F93CF93DF93E3
:101200006C01EB015A01FC0117821682512CF60188
:10121000E380FE01E3FC8591E3FE8191182FEF014D
:10122000882309F4EEC090E00E94160A892B21F071
:10123000C6010E946507EBCF153241F4FE01E3FCC5
:101240001591E3FE1191EF01153281F4C6010E9460
:10125000400A97FDD4C0412F50E09C01332724174A
:101260003507A9F2B6010E94BA0ACBC01A3239F486
:10127000E3FC1591E3FE1191EF0101E001C000E0F4
:10128000F12C20ED210F2A3080F402606F2D70E0E8
:1012900080E090E040E20E943E07F62EFE01E3FC73
:1012A0001591E3FE1191EF01ECCF01FF03C0F110A6
:1012B00003C0A7C0FF24FA94183619F01C3651F069
:1012C00010C0FE01E3FC1591E3FE1191EF01183609
:1012D00041F408600460FE01E3FC1591E3FE119106
:1012E000EF01112309F48DC0612F70E084EE90E0CE
:1012F0000E941F0A892B09F484C000FD07C0F50174
:1013000080809180C50102965C0102C0812C912CE5
:101310001E3651F4F6014681578160E070E0202FBF
:10132000C4010E94320773CF1336A9F401FD02C035
:10133000FF24F394C6010E94400A97FD60C0811407
:10134000910429F0F4018083C40101964C01FA94C0
:10135000F110F0CF50C01B3559F49E01A4016F2D40
:10136000C6010E941008EC01892B09F044C03EC060
:10137000C6010E94650797FD42C01F3661F128F43F
:10138000143639F1193651F128C0133771F0153779
:1013900001F123C08114910429F0F4016082C40199
:1013A00001964C01FA94FF2071F0C6010E94400A98
:1013B0003C0197FD08C00E94160A892B59F3B6011B
:1013C000C3010E94BA0A81149104A9F0F4011082A9
:1013D00012C0006203C0006101C00064202FA4019C
:1013E0006F2DC6010E947E07811105C0F601838121
:1013F000807329F406C000FD0ACF539408CF55200E
:1014000019F0852D90E002C08FEF9FEFDF91CF9113
:101410001F910F91FF90EF90DF90CF90BF90AF9012
:101420009F908F907F906F905F90089591110C9492
:101430009E04803219F089508550C8F70895FC0148
:101440000590061621F00020D9F7C00108953197C4
:10145000CF010895FC010590615070400110D8F74C
:10146000809590958E0F9F1F0895FC0161507040EC
:1014700001900110D8F7809590958E0F9F1F0895C9
:10148000CF93DF93EC012B8120FF33C026FF0AC0EE
:101490002F7B2B838E819F8101969F838E838A81F0
:1014A00090E029C022FF0FC0E881F9818081082ED9
:1014B000000C990B009719F420622B831AC0319607
:1014C000F983E8830EC0EA85FB85199597FF09C06B
:1014D0002B81019611F080E201C080E1822B8B8389
:1014E00008C02E813F812F5F3F4F3F832E83992776
:1014F00002C08FEF9FEFDF91CF9108950F931F935D
:10150000CF93DF93FB01238121FD03C08FEF9FEF7A
:101510002CC022FF16C04681578124813581421795
:10152000530744F4A081B1819D012F5F3F4F318368
:1015300020838C93268137812F5F3F4F378326830B
:1015400014C08B01EC01FB010084F185E02D19959D
:10155000892BE1F6D80116968D919C9117970196EB
:1015600017969C938E931697CE01DF91CF911F9182
:101570000F910895FB01238120FF12C026FD10C0AA
:101580008F3F3FEF930761F082832F7D2064238399
:101590002681378121503109378326839927089581
:1015A0008FEF9FEF0895FA01AA27283051F12031DB
:1015B00081F1E8946F936E7F6E5F7F4F8F4F9F4FE7
:1015C000AF4FB1E03ED0B4E03CD0670F781F891F29
:1015D0009A1FA11D680F791F8A1F911DA11D6A0FF7
:1015E000711D811D911DA11D20D009F468943F91AA
:1015F0002AE0269F11243019305D3193DEF6CF01A9
:101600000895462F4770405D4193B3E00FD0C9F76E
:10161000F6CF462F4F70405D4A3318F0495D31FDDB
:101620004052419302D0A9F7EACFB4E0A69597952E
:10163000879577956795BA95C9F700976105710504
:1016400008959B01AC010A2E06945795479537954E
:101650002795BA95C9F7620F731F841F951FA01DA8
:061660000895F894FFCF8D
:10166600696E6974007363616E002000256420252D
:0E16760064202564006665746368002D000022
:00000001FF
